{
  "contractName": "DonationPot",
  "abi": [
    {
      "inputs": [
        {
          "internalType": "uint256",
          "name": "_goal",
          "type": "uint256"
        },
        {
          "internalType": "string[]",
          "name": "_names",
          "type": "string[]"
        },
        {
          "internalType": "uint32[]",
          "name": "_apiIds",
          "type": "uint32[]"
        },
        {
          "internalType": "address payable[]",
          "name": "_accounts",
          "type": "address[]"
        }
      ],
      "stateMutability": "nonpayable",
      "type": "constructor"
    },
    {
      "inputs": [
        {
          "internalType": "uint256",
          "name": "",
          "type": "uint256"
        }
      ],
      "name": "apiIds",
      "outputs": [
        {
          "internalType": "uint32",
          "name": "",
          "type": "uint32"
        }
      ],
      "stateMutability": "view",
      "type": "function",
      "constant": true
    },
    {
      "inputs": [
        {
          "internalType": "uint32",
          "name": "",
          "type": "uint32"
        }
      ],
      "name": "choices",
      "outputs": [
        {
          "internalType": "address payable",
          "name": "account",
          "type": "address"
        },
        {
          "internalType": "string",
          "name": "name",
          "type": "string"
        },
        {
          "internalType": "uint256",
          "name": "votes",
          "type": "uint256"
        },
        {
          "internalType": "uint256",
          "name": "fundsTransfered",
          "type": "uint256"
        }
      ],
      "stateMutability": "view",
      "type": "function",
      "constant": true
    },
    {
      "inputs": [
        {
          "internalType": "address",
          "name": "",
          "type": "address"
        }
      ],
      "name": "donors",
      "outputs": [
        {
          "internalType": "uint256",
          "name": "funds",
          "type": "uint256"
        },
        {
          "internalType": "bool",
          "name": "voted",
          "type": "bool"
        },
        {
          "internalType": "bool",
          "name": "registered",
          "type": "bool"
        }
      ],
      "stateMutability": "view",
      "type": "function",
      "constant": true
    },
    {
      "inputs": [],
      "name": "goal",
      "outputs": [
        {
          "internalType": "uint256",
          "name": "",
          "type": "uint256"
        }
      ],
      "stateMutability": "view",
      "type": "function",
      "constant": true
    },
    {
      "inputs": [],
      "name": "totalVotes",
      "outputs": [
        {
          "internalType": "uint8",
          "name": "",
          "type": "uint8"
        }
      ],
      "stateMutability": "view",
      "type": "function",
      "constant": true
    },
    {
      "inputs": [],
      "name": "voteStartsAt",
      "outputs": [
        {
          "internalType": "uint256",
          "name": "",
          "type": "uint256"
        }
      ],
      "stateMutability": "view",
      "type": "function",
      "constant": true
    },
    {
      "inputs": [],
      "name": "winner",
      "outputs": [
        {
          "internalType": "uint32",
          "name": "",
          "type": "uint32"
        }
      ],
      "stateMutability": "view",
      "type": "function",
      "constant": true
    },
    {
      "stateMutability": "payable",
      "type": "receive",
      "payable": true
    },
    {
      "inputs": [
        {
          "internalType": "uint32",
          "name": "_apiId",
          "type": "uint32"
        }
      ],
      "name": "vote",
      "outputs": [],
      "stateMutability": "nonpayable",
      "type": "function"
    },
    {
      "inputs": [],
      "name": "countVotes",
      "outputs": [
        {
          "internalType": "bool",
          "name": "_success",
          "type": "bool"
        }
      ],
      "stateMutability": "nonpayable",
      "type": "function"
    },
    {
      "inputs": [],
      "name": "fundWinner",
      "outputs": [
        {
          "internalType": "bool",
          "name": "success",
          "type": "bool"
        }
      ],
      "stateMutability": "payable",
      "type": "function",
      "payable": true
    },
    {
      "inputs": [],
      "name": "getWinner",
      "outputs": [
        {
          "internalType": "uint32",
          "name": "_winnerId",
          "type": "uint32"
        },
        {
          "internalType": "address",
          "name": "_winnerAddress",
          "type": "address"
        },
        {
          "internalType": "uint256",
          "name": "_transferedFunds",
          "type": "uint256"
        }
      ],
      "stateMutability": "view",
      "type": "function",
      "constant": true
    },
    {
      "inputs": [
        {
          "internalType": "address",
          "name": "_donorAddress",
          "type": "address"
        }
      ],
      "name": "getDonationsFrom",
      "outputs": [
        {
          "internalType": "uint256",
          "name": "_donation",
          "type": "uint256"
        }
      ],
      "stateMutability": "view",
      "type": "function",
      "constant": true
    },
    {
      "inputs": [],
      "name": "getDonors",
      "outputs": [
        {
          "internalType": "address[]",
          "name": "",
          "type": "address[]"
        }
      ],
      "stateMutability": "view",
      "type": "function",
      "constant": true
    }
  ],
  "bytecode": "0x60a060405260006001556000600360006101000a81548160ff021916908360ff1602179055506000600360016101000a81548163ffffffff021916908363ffffffff1602179055503480156200005457600080fd5b5060405162002b3238038062002b3283398181016040528101906200007a91906200084b565b815183511480156200008d575080518351145b620000cf576040517f08c379a0000000000000000000000000000000000000000000000000000000008152600401620000c690620009a1565b60405180910390fd5b83608081815250508160029080519060200190620000ef9291906200024f565b5060005b83518160ff16101562000244576040518060800160405280838360ff1681518110620001245762000123620009c3565b5b602002602001015173ffffffffffffffffffffffffffffffffffffffff168152602001858360ff168151811062000160576200015f620009c3565b5b6020026020010151815260200160008152602001600081525060056000858460ff1681518110620001965762000195620009c3565b5b602002602001015163ffffffff1663ffffffff16815260200190815260200160002060008201518160000160006101000a81548173ffffffffffffffffffffffffffffffffffffffff021916908373ffffffffffffffffffffffffffffffffffffffff160217905550602082015181600101908162000216919062000c33565b50604082015181600201556060820151816003015590505080806200023b9062000d56565b915050620000f3565b505050505062000d84565b82805482825590600052602060002090600701600890048101928215620002f35791602002820160005b83821115620002bf57835183826101000a81548163ffffffff021916908363ffffffff160217905550926020019260040160208160030104928301926001030262000279565b8015620002f15782816101000a81549063ffffffff0219169055600401602081600301049283019260010302620002bf565b505b50905062000302919062000306565b5090565b5b808211156200032157600081600090555060010162000307565b5090565b6000604051905090565b600080fd5b600080fd5b6000819050919050565b6200034e8162000339565b81146200035a57600080fd5b50565b6000815190506200036e8162000343565b92915050565b600080fd5b6000601f19601f8301169050919050565b7f4e487b7100000000000000000000000000000000000000000000000000000000600052604160045260246000fd5b620003c48262000379565b810181811067ffffffffffffffff82111715620003e657620003e56200038a565b5b80604052505050565b6000620003fb62000325565b9050620004098282620003b9565b919050565b600067ffffffffffffffff8211156200042c576200042b6200038a565b5b602082029050602081019050919050565b600080fd5b600080fd5b600067ffffffffffffffff8211156200046557620004646200038a565b5b620004708262000379565b9050602081019050919050565b60005b838110156200049d57808201518184015260208101905062000480565b83811115620004ad576000848401525b50505050565b6000620004ca620004c48462000447565b620003ef565b905082815260208101848484011115620004e957620004e862000442565b5b620004f68482856200047d565b509392505050565b600082601f83011262000516576200051562000374565b5b815162000528848260208601620004b3565b91505092915050565b60006200054862000542846200040e565b620003ef565b905080838252602082019050602084028301858111156200056e576200056d6200043d565b5b835b81811015620005bc57805167ffffffffffffffff81111562000597576200059662000374565b5b808601620005a68982620004fe565b8552602085019450505060208101905062000570565b5050509392505050565b600082601f830112620005de57620005dd62000374565b5b8151620005f084826020860162000531565b91505092915050565b600067ffffffffffffffff8211156200061757620006166200038a565b5b602082029050602081019050919050565b600063ffffffff82169050919050565b620006438162000628565b81146200064f57600080fd5b50565b600081519050620006638162000638565b92915050565b6000620006806200067a84620005f9565b620003ef565b90508083825260208201905060208402830185811115620006a657620006a56200043d565b5b835b81811015620006d35780620006be888262000652565b845260208401935050602081019050620006a8565b5050509392505050565b600082601f830112620006f557620006f462000374565b5b81516200070784826020860162000669565b91505092915050565b600067ffffffffffffffff8211156200072e576200072d6200038a565b5b602082029050602081019050919050565b600073ffffffffffffffffffffffffffffffffffffffff82169050919050565b60006200076c826200073f565b9050919050565b6200077e816200075f565b81146200078a57600080fd5b50565b6000815190506200079e8162000773565b92915050565b6000620007bb620007b58462000710565b620003ef565b90508083825260208201905060208402830185811115620007e157620007e06200043d565b5b835b818110156200080e5780620007f988826200078d565b845260208401935050602081019050620007e3565b5050509392505050565b600082601f83011262000830576200082f62000374565b5b815162000842848260208601620007a4565b91505092915050565b600080600080608085870312156200086857620008676200032f565b5b600062000878878288016200035d565b945050602085015167ffffffffffffffff8111156200089c576200089b62000334565b5b620008aa87828801620005c6565b935050604085015167ffffffffffffffff811115620008ce57620008cd62000334565b5b620008dc87828801620006dd565b925050606085015167ffffffffffffffff8111156200090057620008ff62000334565b5b6200090e8782880162000818565b91505092959194509250565b600082825260208201905092915050565b7f73616d652073697a6520726571756972656420666f72206e616d65732c20617060008201527f6949647320616e64206163636f756e7473000000000000000000000000000000602082015250565b6000620009896031836200091a565b915062000996826200092b565b604082019050919050565b60006020820190508181036000830152620009bc816200097a565b9050919050565b7f4e487b7100000000000000000000000000000000000000000000000000000000600052603260045260246000fd5b600081519050919050565b7f4e487b7100000000000000000000000000000000000000000000000000000000600052602260045260246000fd5b6000600282049050600182168062000a4557607f821691505b60208210810362000a5b5762000a5a620009fd565b5b50919050565b60008190508160005260206000209050919050565b60006020601f8301049050919050565b600082821b905092915050565b60006008830262000ac57fffffffffffffffffffffffffffffffffffffffffffffffffffffffffffffffff8262000a86565b62000ad1868362000a86565b95508019841693508086168417925050509392505050565b6000819050919050565b600062000b1462000b0e62000b088462000339565b62000ae9565b62000339565b9050919050565b6000819050919050565b62000b308362000af3565b62000b4862000b3f8262000b1b565b84845462000a93565b825550505050565b600090565b62000b5f62000b50565b62000b6c81848462000b25565b505050565b5b8181101562000b945762000b8860008262000b55565b60018101905062000b72565b5050565b601f82111562000be35762000bad8162000a61565b62000bb88462000a76565b8101602085101562000bc8578190505b62000be062000bd78562000a76565b83018262000b71565b50505b505050565b600082821c905092915050565b600062000c086000198460080262000be8565b1980831691505092915050565b600062000c23838362000bf5565b9150826002028217905092915050565b62000c3e82620009f2565b67ffffffffffffffff81111562000c5a5762000c596200038a565b5b62000c66825462000a2c565b62000c7382828562000b98565b600060209050601f83116001811462000cab576000841562000c96578287015190505b62000ca2858262000c15565b86555062000d12565b601f19841662000cbb8662000a61565b60005b8281101562000ce55784890151825560018201915060208501945060208101905062000cbe565b8683101562000d05578489015162000d01601f89168262000bf5565b8355505b6001600288020188555050505b505050505050565b7f4e487b7100000000000000000000000000000000000000000000000000000000600052601160045260246000fd5b600060ff82169050919050565b600062000d638262000d49565b915060ff820362000d795762000d7862000d1a565b5b600182019050919050565b608051611d8462000dae60003960008181610369015281816106ff0152610ab90152611d846000f3fe6080604052600436106100c65760003560e01c80635c08492d1161007f57806396f300d41161005957806396f300d41461054c578063b647990a14610577578063ca0cdea8146105a2578063dfbf53ae146105e157610398565b80635c08492d146104b95780638e7ea5b2146104f65780639094c7631461052357610398565b80630d15fd771461039d5780630f0d168b146103c857806314567a601461040857806340193883146104335780634895367b1461045e578063553decb51461047c57610398565b36610398576000341161010e576040517f08c379a0000000000000000000000000000000000000000000000000000000008152600401610105906111e9565b60405180910390fd5b600060015414610153576040517f08c379a000000000000000000000000000000000000000000000000000000000815260040161014a9061127b565b60405180910390fd5b600460003373ffffffffffffffffffffffffffffffffffffffff1673ffffffffffffffffffffffffffffffffffffffff16815260200190815260200160002060010160019054906101000a900460ff16156102065734600460003373ffffffffffffffffffffffffffffffffffffffff1673ffffffffffffffffffffffffffffffffffffffff16815260200190815260200160002060000160008282546101fa91906112d4565b92505081905550610367565b6000339080600181540180825580915050600190039060005260206000200160009091909190916101000a81548173ffffffffffffffffffffffffffffffffffffffff021916908373ffffffffffffffffffffffffffffffffffffffff16021790555034600460003373ffffffffffffffffffffffffffffffffffffffff1673ffffffffffffffffffffffffffffffffffffffff168152602001908152602001600020600001819055506000600460003373ffffffffffffffffffffffffffffffffffffffff1673ffffffffffffffffffffffffffffffffffffffff16815260200190815260200160002060010160006101000a81548160ff0219169083151502179055506001600460003373ffffffffffffffffffffffffffffffffffffffff1673ffffffffffffffffffffffffffffffffffffffff16815260200190815260200160002060010160016101000a81548160ff0219169083151502179055505b7f0000000000000000000000000000000000000000000000000000000000000000471061039657426001819055505b005b600080fd5b3480156103a957600080fd5b506103b261060c565b6040516103bf9190611346565b60405180910390f35b3480156103d457600080fd5b506103ef60048036038101906103ea91906113a2565b61061f565b6040516103ff94939291906114a7565b60405180910390f35b34801561041457600080fd5b5061041d6106f7565b60405161042a91906114f3565b60405180910390f35b34801561043f57600080fd5b506104486106fd565b60405161045591906114f3565b60405180910390f35b610466610721565b6040516104739190611529565b60405180910390f35b34801561048857600080fd5b506104a3600480360381019061049e9190611582565b61089b565b6040516104b091906114f3565b60405180910390f35b3480156104c557600080fd5b506104e060048036038101906104db91906115db565b610976565b6040516104ed9190611617565b60405180910390f35b34801561050257600080fd5b5061050b6109b0565b60405161051a93929190611641565b60405180910390f35b34801561052f57600080fd5b5061054a600480360381019061054591906113a2565b610ab7565b005b34801561055857600080fd5b50610561610e6a565b60405161056e9190611736565b60405180910390f35b34801561058357600080fd5b5061058c610ef8565b6040516105999190611529565b60405180910390f35b3480156105ae57600080fd5b506105c960048036038101906105c49190611582565b610fdc565b6040516105d893929190611758565b60405180910390f35b3480156105ed57600080fd5b506105f6611020565b6040516106039190611617565b60405180910390f35b600360009054906101000a900460ff1681565b60056020528060005260406000206000915090508060000160009054906101000a900473ffffffffffffffffffffffffffffffffffffffff1690806001018054610668906117be565b80601f0160208091040260200160405190810160405280929190818152602001828054610694906117be565b80156106e15780601f106106b6576101008083540402835291602001916106e1565b820191906000526020600020905b8154815290600101906020018083116106c457829003601f168201915b5050505050908060020154908060030154905084565b60015481565b7f000000000000000000000000000000000000000000000000000000000000000081565b6000804711610765576040517f08c379a000000000000000000000000000000000000000000000000000000000815260040161075c9061183b565b60405180910390fd5b6000600360019054906101000a900463ffffffff1663ffffffff16036107c0576040517f08c379a00000000000000000000000000000000000000000000000000000000081526004016107b7906118a7565b60405180910390fd5b4760056000600360019054906101000a900463ffffffff1663ffffffff1663ffffffff1681526020019081526020016000206003018190555060056000600360019054906101000a900463ffffffff1663ffffffff1663ffffffff16815260200190815260200160002060000160009054906101000a900473ffffffffffffffffffffffffffffffffffffffff1673ffffffffffffffffffffffffffffffffffffffff166108fc479081150290604051600060405180830381858888f19350505050158015610893573d6000803e3d6000fd5b506001905090565b6000600460008373ffffffffffffffffffffffffffffffffffffffff1673ffffffffffffffffffffffffffffffffffffffff16815260200190815260200160002060010160019054906101000a900460ff1661092c576040517f08c379a000000000000000000000000000000000000000000000000000000000815260040161092390611913565b60405180910390fd5b600460008373ffffffffffffffffffffffffffffffffffffffff1673ffffffffffffffffffffffffffffffffffffffff168152602001908152602001600020600001549050919050565b6002818154811061098657600080fd5b9060005260206000209060089182820401919006600402915054906101000a900463ffffffff1681565b600080600080600360019054906101000a900463ffffffff1663ffffffff1603610a0f576040517f08c379a0000000000000000000000000000000000000000000000000000000008152600401610a06906119a5565b60405180910390fd5b600360019054906101000a900463ffffffff1660056000600360019054906101000a900463ffffffff1663ffffffff1663ffffffff16815260200190815260200160002060000160009054906101000a900473ffffffffffffffffffffffffffffffffffffffff1660056000600360019054906101000a900463ffffffff1663ffffffff1663ffffffff16815260200190815260200160002060030154925092509250909192565b7f0000000000000000000000000000000000000000000000000000000000000000471015610b1a576040517f08c379a0000000000000000000000000000000000000000000000000000000008152600401610b1190611a37565b60405180910390fd5b6213c680600154610b2b91906112d4565b4210610b6c576040517f08c379a0000000000000000000000000000000000000000000000000000000008152600401610b6390611aa3565b60405180910390fd5b600080549050600360009054906101000a900460ff1660ff1610610bc5576040517f08c379a0000000000000000000000000000000000000000000000000000000008152600401610bbc90611b35565b60405180910390fd5b600460003373ffffffffffffffffffffffffffffffffffffffff1673ffffffffffffffffffffffffffffffffffffffff16815260200190815260200160002060010160019054906101000a900460ff16610c54576040517f08c379a0000000000000000000000000000000000000000000000000000000008152600401610c4b90611913565b60405180910390fd5b60001515600460003373ffffffffffffffffffffffffffffffffffffffff1673ffffffffffffffffffffffffffffffffffffffff16815260200190815260200160002060010160009054906101000a900460ff16151514610cea576040517f08c379a0000000000000000000000000000000000000000000000000000000008152600401610ce190611ba1565b60405180910390fd5b600460003373ffffffffffffffffffffffffffffffffffffffff1673ffffffffffffffffffffffffffffffffffffffff16815260200190815260200160002060000154600560008363ffffffff1663ffffffff1681526020019081526020016000206002016000828254610d5e91906112d4565b925050819055506000600460003373ffffffffffffffffffffffffffffffffffffffff1673ffffffffffffffffffffffffffffffffffffffff168152602001908152602001600020600001819055506001600460003373ffffffffffffffffffffffffffffffffffffffff1673ffffffffffffffffffffffffffffffffffffffff16815260200190815260200160002060010160006101000a81548160ff0219169083151502179055506001600360008282829054906101000a900460ff16610e279190611bc1565b92506101000a81548160ff021916908360ff160217905550600080549050600360009054906101000a900460ff1660ff1603610e6757610e65610ef8565b505b50565b60606000805480602002602001604051908101604052809291908181526020018280548015610eee57602002820191906000526020600020905b8160009054906101000a900473ffffffffffffffffffffffffffffffffffffffff1673ffffffffffffffffffffffffffffffffffffffff1681526020019060010190808311610ea4575b5050505050905090565b60008080549050600360009054906101000a900460ff1660ff161480610f2d57506213c680600154610f2a91906112d4565b42115b610f6c576040517f08c379a0000000000000000000000000000000000000000000000000000000008152600401610f6390611c44565b60405180910390fd5b6000600360019054906101000a900463ffffffff1663ffffffff1614610fc7576040517f08c379a0000000000000000000000000000000000000000000000000000000008152600401610fbe90611cd6565b60405180910390fd5b610fcf611036565b610fd7610721565b905090565b60046020528060005260406000206000915090508060000154908060010160009054906101000a900460ff16908060010160019054906101000a900460ff16905083565b600360019054906101000a900463ffffffff1681565b6000600260008154811061104d5761104c611cf6565b5b90600052602060002090600891828204019190066004029054906101000a900463ffffffff1690506000600190505b6002805490508160ff16101561116757600560008363ffffffff1663ffffffff168152602001908152602001600020600201546005600060028460ff16815481106110ca576110c9611cf6565b5b90600052602060002090600891828204019190066004029054906101000a900463ffffffff1663ffffffff1663ffffffff1681526020019081526020016000206002015411156111545760028160ff168154811061112b5761112a611cf6565b5b90600052602060002090600891828204019190066004029054906101000a900463ffffffff1691505b808061115f90611d25565b91505061107c565b5080600360016101000a81548163ffffffff021916908363ffffffff16021790555050565b600082825260208201905092915050565b7f63616e277420646f6e617465203020746f6b656e730000000000000000000000600082015250565b60006111d360158361118c565b91506111de8261119d565b602082019050919050565b60006020820190508181036000830152611202816111c6565b9050919050565b7f676f616c2068617320616c7265616479206265656e20726561636865642c207460008201527f68616e6b732e0000000000000000000000000000000000000000000000000000602082015250565b600061126560268361118c565b915061127082611209565b604082019050919050565b6000602082019050818103600083015261129481611258565b9050919050565b6000819050919050565b7f4e487b7100000000000000000000000000000000000000000000000000000000600052601160045260246000fd5b60006112df8261129b565b91506112ea8361129b565b9250827fffffffffffffffffffffffffffffffffffffffffffffffffffffffffffffffff0382111561131f5761131e6112a5565b5b828201905092915050565b600060ff82169050919050565b6113408161132a565b82525050565b600060208201905061135b6000830184611337565b92915050565b600080fd5b600063ffffffff82169050919050565b61137f81611366565b811461138a57600080fd5b50565b60008135905061139c81611376565b92915050565b6000602082840312156113b8576113b7611361565b5b60006113c68482850161138d565b91505092915050565b600073ffffffffffffffffffffffffffffffffffffffff82169050919050565b60006113fa826113cf565b9050919050565b61140a816113ef565b82525050565b600081519050919050565b60005b8381101561143957808201518184015260208101905061141e565b83811115611448576000848401525b50505050565b6000601f19601f8301169050919050565b600061146a82611410565b611474818561118c565b935061148481856020860161141b565b61148d8161144e565b840191505092915050565b6114a18161129b565b82525050565b60006080820190506114bc6000830187611401565b81810360208301526114ce818661145f565b90506114dd6040830185611498565b6114ea6060830184611498565b95945050505050565b60006020820190506115086000830184611498565b92915050565b60008115159050919050565b6115238161150e565b82525050565b600060208201905061153e600083018461151a565b92915050565b600061154f826113cf565b9050919050565b61155f81611544565b811461156a57600080fd5b50565b60008135905061157c81611556565b92915050565b60006020828403121561159857611597611361565b5b60006115a68482850161156d565b91505092915050565b6115b88161129b565b81146115c357600080fd5b50565b6000813590506115d5816115af565b92915050565b6000602082840312156115f1576115f0611361565b5b60006115ff848285016115c6565b91505092915050565b61161181611366565b82525050565b600060208201905061162c6000830184611608565b92915050565b61163b81611544565b82525050565b60006060820190506116566000830186611608565b6116636020830185611632565b6116706040830184611498565b949350505050565b600081519050919050565b600082825260208201905092915050565b6000819050602082019050919050565b6116ad81611544565b82525050565b60006116bf83836116a4565b60208301905092915050565b6000602082019050919050565b60006116e382611678565b6116ed8185611683565b93506116f883611694565b8060005b8381101561172957815161171088826116b3565b975061171b836116cb565b9250506001810190506116fc565b5085935050505092915050565b6000602082019050818103600083015261175081846116d8565b905092915050565b600060608201905061176d6000830186611498565b61177a602083018561151a565b611787604083018461151a565b949350505050565b7f4e487b7100000000000000000000000000000000000000000000000000000000600052602260045260246000fd5b600060028204905060018216806117d657607f821691505b6020821081036117e9576117e861178f565b5b50919050565b7f6e6f2066756e647320696e20636f6e74726163742e2e2e000000000000000000600082015250565b600061182560178361118c565b9150611830826117ef565b602082019050919050565b6000602082019050818103600083015261185481611818565b9050919050565b7f6e6f2077696e6e6572207965742e000000000000000000000000000000000000600082015250565b6000611891600e8361118c565b915061189c8261185b565b602082019050919050565b600060208201905081810360008301526118c081611884565b9050919050565b7f6e6f207375636820646f6e6f722e000000000000000000000000000000000000600082015250565b60006118fd600e8361118c565b9150611908826118c7565b602082019050919050565b6000602082019050818103600083015261192c816118f0565b9050919050565b7f6e6f2077696e6e6572207965742c20636f756e74566f74657320696620766f7460008201527f696e672077696e646f77206973206f7665722e00000000000000000000000000602082015250565b600061198f60338361118c565b915061199a82611933565b604082019050919050565b600060208201905081810360008301526119be81611982565b9050919050565b7f706f7420676f616c20686173206e6f74206265656e20726561636865643b207660008201527f6f746573206e6f7420616c6c6f776564207965742e0000000000000000000000602082015250565b6000611a2160358361118c565b9150611a2c826119c5565b604082019050919050565b60006020820190508181036000830152611a5081611a14565b9050919050565b7f736f7272792c20766f74696e672077696e646f7720697320636c6f7365642e00600082015250565b6000611a8d601f8361118c565b9150611a9882611a57565b602082019050919050565b60006020820190508181036000830152611abc81611a80565b9050919050565b7f736f7272792c2065766572796f6e652068617320616c726561647920766f746560008201527f642e000000000000000000000000000000000000000000000000000000000000602082015250565b6000611b1f60228361118c565b9150611b2a82611ac3565b604082019050919050565b60006020820190508181036000830152611b4e81611b12565b9050919050565b7f646f6e6f722068617320616c726561647920766f7465642e0000000000000000600082015250565b6000611b8b60188361118c565b9150611b9682611b55565b602082019050919050565b60006020820190508181036000830152611bba81611b7e565b9050919050565b6000611bcc8261132a565b9150611bd78361132a565b92508260ff03821115611bed57611bec6112a5565b5b828201905092915050565b7f656c656374696f6e206e6f74206f766572207965742100000000000000000000600082015250565b6000611c2e60168361118c565b9150611c3982611bf8565b602082019050919050565b60006020820190508181036000830152611c5d81611c21565b9050919050565b7f612077696e6e65722068617320616c7265616479206265656e206465636c617260008201527f6564000000000000000000000000000000000000000000000000000000000000602082015250565b6000611cc060228361118c565b9150611ccb82611c64565b604082019050919050565b60006020820190508181036000830152611cef81611cb3565b9050919050565b7f4e487b7100000000000000000000000000000000000000000000000000000000600052603260045260246000fd5b6000611d308261132a565b915060ff8203611d4357611d426112a5565b5b60018201905091905056fea2646970667358221220721bb41a10fd70690b0d31683da1c28ff1c170084faabd9f8f16a797347e437b64736f6c634300080f0033",
  "immutableReferences": {
    "19": [
      {
        "length": 32,
        "start": 873
      },
      {
        "length": 32,
        "start": 1791
      },
      {
        "length": 32,
        "start": 2745
      }
    ]
  },
  "source": "// SPDX-License-Identifier: UNLICENSE\npragma solidity ^0.8.0;\n\n// import \"truffle/Console.sol\";\n\ncontract DonationPot {\n    // a donor with governance over pot funds\n    // if election is public, donor struct should\n    // include a uint32 vote to store voted choice apiId\n    // if election is private, omit such field\n    struct Donor {\n        uint256 funds;\n        bool voted;\n        bool registered;\n    }\n    // a humanitarian project looking for funds\n    struct Project {\n        address payable account;\n        string name;\n        uint256 votes;\n        uint256 fundsTransfered;\n    }\n    // contracts goal amount; when reached vote starts\n    uint256 immutable public goal;\n    // donor addresses\n    address[] donorAddresses;\n    // assigned block.timestamp on goal being reached\n    uint256 public voteStartsAt = 0;\n    // choices origin ids\n    uint32[] public apiIds;\n    // state for total votes received\n    uint8 public totalVotes = 0;\n    // state for winner origin id (apiId)\n    uint32 public winner = 0;\n    // donor structs mapping: address to Donor\n    mapping(address => Donor) public donors;\n    // project structs mapping: apiId to Project\n    mapping(uint32 => Project) public choices;\n    // create contract\n    // project choices cannot be received as structs\n    // as only internal and private functions may\n    // receive this type of variables as a parameter\n    constructor(\n        uint256 _goal,\n        string[] memory _names,\n        uint32[] memory _apiIds,\n        address payable[] memory _accounts\n    ) {\n        // validates all lists have the same amount of values\n        require(\n            _names.length == _apiIds.length && \n            _names.length == _accounts.length,\n            \"same size required for names, apiIds and accounts\"\n        );\n        // sets goal state value\n        goal = _goal;\n        apiIds = _apiIds;\n        // builds each project with ordered data from lists\n        // and adds each one as part of choices structs\n        for (uint8 index = 0; index < _names.length; index++) {\n            choices[_apiIds[index]] = Project(\n                _accounts[index],\n                _names[index],\n                0,\n                0\n            );\n        }\n    }\n    receive() external payable {\n        require(msg.value > 0, \"can't donate 0 tokens\");\n        require(\n            voteStartsAt == 0, \n            \"goal has already been reached, thanks.\"\n        );\n        if (donors[msg.sender].registered) {\n            // if msg.sender is already a donor\n            // just add to current funds\n            donors[msg.sender].funds += msg.value;\n        } else {\n            // otherwise add it as a donor\n            donorAddresses.push(msg.sender);\n            donors[msg.sender].funds = msg.value;\n            donors[msg.sender].voted = false;\n            donors[msg.sender].registered = true;\n        }\n        if (address(this).balance >= goal) {\n            voteStartsAt = block.timestamp;\n        }\n    }\n    function vote(uint32 _apiId) external {\n        require(\n            address(this).balance >= goal, \n            \"pot goal has not been reached; votes not allowed yet.\"\n        );\n        require(\n            block.timestamp < voteStartsAt + 15 days, \n            \"sorry, voting window is closed.\"\n        );\n        require(\n            totalVotes < donorAddresses.length, \n            \"sorry, everyone has already voted.\"\n        );\n        require(donors[msg.sender].registered, \"no such donor.\");\n        require(\n            donors[msg.sender].voted == false, \n            \"donor has already voted.\"\n        );\n        // voting value is proportional to participation\n        choices[_apiId].votes += donors[msg.sender].funds;\n        donors[msg.sender].funds = 0;\n        donors[msg.sender].voted = true;\n        // donors[msg.sender].vote = _apiId; for public votes...\n        totalVotes += 1;\n        if (totalVotes == donorAddresses.length) {\n            countVotes();\n        }\n    }\n    function countVotes() public returns(bool _success) {\n        require(\n            totalVotes == donorAddresses.length || \n            block.timestamp > voteStartsAt + 15 days, \n            \"election not over yet!\"\n        );\n        if (winner != 0) {\n            revert(\"a winner has already been declared\");\n        } \n        setWinner();\n        return fundWinner();\n    }\n    function fundWinner() public payable returns(bool success) {\n        require(\n            address(this).balance > 0, \n            \"no funds in contract...\"\n        );\n        require(winner != 0, \"no winner yet.\");\n        choices[winner].fundsTransfered = address(this).balance;\n        choices[winner].account.transfer(address(this).balance);\n        return true;\n    }\n    function setWinner() internal {\n        uint32 winnerChoice = apiIds[0];\n        for (uint8 index = 1; index < apiIds.length; index++) {\n            if (\n                choices[apiIds[index]].votes > \n                choices[winnerChoice].votes\n            ) {\n                winnerChoice = apiIds[index];\n            }\n        }\n        winner = winnerChoice;\n    }\n    function getWinner() external view returns(\n        uint32 _winnerId, \n        address _winnerAddress, \n        uint256 _transferedFunds\n    ) {\n        require(\n            winner != 0, \n            \"no winner yet, countVotes if voting window is over.\"\n        );\n        return (\n            winner, \n            choices[winner].account, \n            choices[winner].fundsTransfered\n        );\n    }\n    function getDonationsFrom(address _donorAddress) \n        external \n        view \n        returns(uint256 _donation) {\n        require(\n            donors[_donorAddress].registered, \n            \"no such donor.\"\n        );\n        return donors[_donorAddress].funds;\n    }\n    function getDonors()\n        external\n        view\n        returns(address[] memory) {\n        return donorAddresses;\n    }\n}\n",
  "sourcePath": "/home/ernesto/FundacionS4V/loom-proof-of-concept/contracts/DonationPot.sol",
  "compiler": {
    "name": "solc",
    "version": "0.8.15+commit.e14f2714.Emscripten.clang"
  },
  "schemaVersion": "3.4.8",
  "updatedAt": "2022-07-10T18:57:26.598Z",
  "networkType": "ethereum",
  "devdoc": {
    "kind": "dev",
    "methods": {},
    "version": 1
  },
  "userdoc": {
    "kind": "user",
    "methods": {},
    "version": 1
  }
}